:020000040800F2
:1000000000000320651D0008011D0008031D0008F5
:10001000051D0008071D0008091D0008000000005C
:100020000000000000000000000000000B1D0008A0
:100030000D1D0008000000000F1D0008111D000824
:10004000B51D0008B51D0008B51D0008B51D000848
:10005000B51D0008B51D0008B51D0008B51D000838
:10006000B51D0008B51D0008B51D0008B51D000828
:10007000B51D0008B51D0008B51D0008B51D000818
:10008000B51D0008B51D0008B51D0008B51D000808
:10009000B51D0008B51D0008B51D0008B51D0008F8
:1000A000B51D0008B51D0008B51D0008B51D0008E8
:1000B000B51D0008B51D0008B51D0008B51D0008D8
:1000C000B51D0008B51D0008B51D0008B51D0008C8
:1000D000B51D0008B51D0008B51D0008B51D0008B8
:1000E000B51D0008B51D0008B51D0008B51D0008A8
:1000F000B51D0008B51D0008B51D0008B51D000898
:10010000B51D0008B51D0008B51D0008B51D000887
:10011000B51D0008B51D0008B51D0008B51D000877
:10012000B51D0008B51D0008B51D0008B51D000867
:10013000B51D0008B51D0008B51D0008B51D000857
:10014000B51D0008B51D0008B51D0008B51D000847
:10015000B51D0008B51D0008B51D0008B51D000837
:10016000B51D0008B51D0008B51D0008B51D000827
:10017000B51D0008B51D0008B51D000800000000F1
:10018000B51D0008B51D0008B51D0008B51D000807
:10019000B51D0008B51D0008B51D0008B51D0008F7
:0C01A000B51D0008B51D0008B51D0008C5
:1001B00010B5054C237833B9044B13B10448AFF3A1
:1001C00000800123237010BD780000200000000093
:1001D0007426000808B5034B1BB103490348AFF36D
:1001E000008008BD000000007C000020742600088C
:1001F000034613F8012B002AFBD1181A0138704767
:1002000001F0FF01102A2BDB10F0070F08D010F8C7
:10021000013B013A8B422DD010F0070F42B3F6D1CB
:10022000F0B441EA012141EA014122F007047FF0E4
:1002300000070023F0E80256083C85EA010586EA3B
:10024000010685FA47F5A3FA87F586FA47F6A5FA77
:1002500087F68EB9EED1F0BC01F0FF0102F0070283
:1002600032B110F8013B013A83EA010313B1F8D12E
:100270000020704701387047002D06BF354603380F
:10028000073815F0010F07D1013015F4807F02BF48
:10029000013015F4C03F0130F0BC0138704700BF99
:1002A00053B94AB9002908BF00281CBF4FF0FF31DD
:1002B0004FF0FF3000F07AB9ADF1080C6DE904CED3
:1002C00000F006F8DDF804E0DDE9022304B0704731
:1002D0002DE9F0478C460D460446089E002B51D16F
:1002E0008A4217466DD9B2FA82FEBEF1000F0BD0DA
:1002F000CEF1200C01FA0EF520FA0CFC02FA0EF7F2
:100300004CEA050C00FA0EF44FEA174A250CBCFB28
:10031000FAF81FFA87F90AFB18CC45EA0C4508FBE6
:1003200009F3AB420AD9ED1908F1FF3280F02381BD
:10033000AB4240F22081A8F102083D44ED1AA4B27C
:10034000B5FBFAF00AFB105544EA054400FB09F935
:10035000A14509D9E41900F1FF3380F00A81A145D4
:1003600040F2078102383C44A4EB090440EA08400B
:100370000021002E61D024FA0EF400233460736053
:10038000BDE8F0878B4207D9002E54D0002186E8C3
:1003900021000846BDE8F087B3FA83F1002940F058
:1003A0008E80AB4202D3824200F2FA80841A65EB5F
:1003B00003050120AC46002E3FD086E81010BDE8B2
:1003C000F08712B90127B7FBF2F7B7FA87FEBEF143
:1003D000000F34D1EB1B3A0C1FFA87FC0121B3FB51
:1003E000F2F8250C02FB183345EA03450CFB08F331
:1003F000AB4207D9ED1908F1FF3002D2AB4200F24F
:10040000D1808046ED1AA3B2B5FBF2F002FB105585
:1004100043EA05440CFB00FCA44507D9E41900F1AC
:10042000FF3302D2A44500F2B8801846A4EB0C04B6
:1004300040EA08409DE731463046BDE8F087CEF1FE
:10044000200405FA0EF307FA0EF720FA04F83A0C26
:1004500025FA04F448EA0308B4FBF2F14FEA184520
:1004600002FB11441FFA87FC45EA044501FB0CF32B
:10047000AB4200FA0EF409D9ED1901F1FF3080F01A
:100480008A80AB4240F2878002393D44EB1A1FFA62
:1004900088F5B3FBF2F002FB103345EA034500FB9D
:1004A0000CF3AB4207D9ED1900F1FF386FD2AB4224
:1004B0006DD902383D44EB1A40EA01418FE7C1F1A2
:1004C000200722FA07F88B4005FA01F448EA0303F3
:1004D00020FA07FE4FEA134CFD404EEA040EB5FB2E
:1004E000FCF94FEA1E440CFB19551FFA83F844EA45
:1004F000054509FB08F4AC4202FA01F200FA01FAE0
:1005000008D9ED1809F1FF3043D2AC4241D9A9F125
:1005100002091D442D1B1FFA8EFEB5FBFCF00CFBDF
:1005200010554EEA054400FB08F8A04507D9E41829
:1005300000F1FF3529D2A04527D902381C4440EAF2
:100540000940A4EB0804A0FB02894C45C6464D4671
:1005500015D312D056B1BAEB0E0364EB050404FABE
:1005600007F7CB401F43CC40376074600021BDE8E3
:10057000F0871846F8E69046E0E6C245EAD2B8EBC6
:10058000020E69EB03050138E4E72846D7E7404649
:1005900091E78146BEE7014678E702383C4445E7EB
:1005A000084608E7A8F102083D442BE7704700BF62
:1005B00038B50E4A0E4B054618784FF47A73B3FBE4
:1005C000F0F31068B0FBF3F000F09CF8044658B963
:1005D0000F2D09D8024629464FF0FF3000F05EF893
:1005E000044B20461D6038BD012038BD100000209E
:1005F000000000200400002008B50B4B1A6842F4EC
:1006000000721A601A6842F480621A601A6842F432
:1006100080721A60032000F02FF80020FFF7C8FF57
:1006200001F0CAFA002008BD003C0240034A044B16
:1006300011681B780B441360704700BFA8000020AE
:1006400000000020014B1868704700BFA800002080
:1006500038B50446FFF7F6FF631C1CBF054B1B783B
:10066000054618BFE418FFF7EDFF401B8442FAD897
:1006700038BD00BF00000020074AD36823F4E063C0
:100680001B041B0C43F0BF63000243F4003300F46F
:10069000E0600343D360704700ED00E0174B30B5D6
:1006A000DC68C4F30224C4F10703251D042B28BF12
:1006B0000423062D4FF0010505FA03F303F1FF3380
:1006C0008CBF033C00241940A14005FA04F4013C0E
:1006D0002240002842EA01024FEA0212ADBF00F1B7
:1006E000604000F00F00064B00F56140B5BFD2B28C
:1006F000D2B21A5480F8002330BD00BF00ED00E0F4
:1007000014ED00E00138B0F1807F0AD2064B074AB1
:100710005860F02182F823100020072298601A60A8
:1007200070470120704700BF10E000E000ED00E0DE
:100730002DE9F04F85B00B68DFF8C4816E4ADFF811
:10074000C491019300230124019D9C402540AC42AB
:1007500040F0B8804C6824F0100C0CF1FF36012EEC
:100760004FEA430E12D88768032606FA0EF627EAE8
:100770000607CE6806FA0EF63E4386604768C4F365
:10078000001627EA05079E403E4346600326C768D9
:1007900006FA0EF6F64307EA060A8F6807FA0EF71E
:1007A00047EA0A07BCF1020FC76016D14FEAD30A25
:1007B00000EB8A0A03F0070BDAF820704FEA8B0B84
:1007C0004FF00F0C0CFA0BFC27EA0C0C0F6907FA20
:1007D0000BF747EA0C07CAF8207007683E4004F0A0
:1007E000030707FA0EFE4EEA06060660E60069D524
:1007F0004FF0000BCDF80CB0D8F844703F4E47F4E2
:100800008047C8F84470D8F8447007F480470397CD
:10081000039F23F0030707F1804707F59C3703F098
:10082000030CD7F808A04FEA8C0C4FF00F0E0EFA0D
:100830000CFEB0422AEA0E0E4BD006F58066B0429E
:1008400049D006F58066B04247D006F58066B042D2
:1008500045D006F58066B04243D0484543D006F502
:100860000066B04241D006F58066B0423FD006F542
:100870008066B0423DD006F58066B04214BF0A26BD
:10088000092606FA0CF646EA0E06BE601668EF4325
:1008900014F4803F0CBF3E402E431660566814F49B
:1008A000003F0CBF3E402E435660966814F4801FF4
:1008B0000CBF3E402E439660D668A40254BF3E4013
:1008C0002E43D6600133102B7FF43DAF05B0BDE859
:1008D000F08F5E46D5E70126D3E70226D1E703264F
:1008E000CFE70426CDE70526CBE70626C9E707268E
:1008F000C7E70826C5E700BF003C014000000240F2
:1009000000380240001402400AB1816170470904B6
:10091000FBE701684B6913F480634FF0000210D0CD
:100920006FF480634B612023026380F83D3080F8D0
:100930003E20036C80F83C2043F004030364012054
:100940007047184670472DE9F84304461746994604
:10095000C1F307488EB22568B8F1010F0CBF6B696F
:10096000AB6936EA030314BF0120002008B9BDE8D3
:10097000F8836B695A0516D52B6843F400732B6016
:100980006FF480636B6120220023236384F83D2091
:1009900084F83E30226C42F00402226484F83C3039
:1009A0000120BDE8F8837B1CD5D0FFF74BFEA0EB00
:1009B0000900874201D3002FCDD1002320222363D9
:1009C00084F83D2084F83E30226C42F02002E4E7B7
:1009D00070B504460D46164623685B695B0701D572
:1009E000002070BD2046FFF794FFA8B96A1CF3D021
:1009F000FFF728FE801B854201D3002DECD1002398
:100A00002022236384F83D2084F83E30226C84F851
:100A10003C3042F020022264012070BD70B50446D3
:100A20000D4616462068436913F0400301D00020AC
:100A300070BD4269D2060ED56FF0100242612022CD
:100A4000236384F83D2084F83E30226C226484F8CD
:100A50003C30012070BDFFF7F5FD801BA84201D896
:100A6000002DDFD100232022236384F83D2084F869
:100A70003E30226C42F02002E8E72DE9F843089E60
:100A8000044690461F46C1F307498DB22368B9F169
:100A9000010F0CBF5B699B6935EA03030CBF01239F
:100AA0000023434502D00020BDE8F8837B1CEDD035
:100AB000FFF7C8FD801B874201D3002FE6D100233A
:100AC0002022236384F83D2084F83E30226C84F891
:100AD0003C3042F0200222640120BDE8F88370B56A
:100AE00004460D46164623685B691B0601D50020A7
:100AF00070BD2046FFF70DFFA8B96A1CF3D0FFF7C1
:100B0000A1FD801B854201D3002DECD100232022C2
:100B1000236384F83D2084F83E30226C84F83C3016
:100B200042F020022264012070BD000070B504462E
:100B300008B9012070BD90F83D3003F0FF021BB9E9
:100B400080F83C2001F054F8242384F83D302368D9
:100B50001A6822F001021A601A6842F400421A6010
:100B60001A6822F400421A6000F082FD6568414B69
:100B70009D424DD8404B9842DBD922683F4953688B
:100B8000B0FBF1F123F03F030B435360136A23F0F2
:100B90003F03013119431162D169364B21F44F41B2
:100BA0009D4221F0FF0100F1FF3048D86D00B0FBFD
:100BB000F5F00130C0F30B03042B38BF04230B43C3
:100BC000D3611168206AE36921F0C00103430B433C
:100BD00013609168E068236921F40341034321F025
:100BE000FF010B439360D168A069636921F0FF01A5
:100BF00003430B43D360136843F0010313600020E9
:100C00002023206484F83D30206384F83E0070BDCA
:100C10001B4B98428DD92268184E5368B0FBF6F6EC
:100C200023F03F0333435360136A4FF496717143CB
:100C300023F03F034FF47A76B1FBF6F1A9E7A368FE
:100C400053B905EB4503B0FBF3F0431CC3F30B03AF
:100C50006BB143F40043B2E719236B43B0FBF3F0ED
:100C6000431CC3F30B0313B143F44043A7E7012331
:100C7000A5E700BFA08601007F841E0040420F0050
:100C8000FF083D002DE9FF4104461F460D469046F2
:100C9000FFF7D8FC94F83D30202B064604D00225FF
:100CA000284604B0BDE8F0810090192301225B4979
:100CB0002046FFF7E2FE0028F1D194F83C30012BEA
:100CC000EDD0012384F83C3023681A68D2075EBF58
:100CD0001A6842F001021A601A6822F400621A606F
:100CE000212284F83D20102284F83E200022226434
:100CF0006785628D22854A4AE262E26AC4F82480EE
:100D0000082A04D0012A02D012F5803F04D11A68C3
:100D100042F480721A6002E0226B122AF7D000229D
:100D200000960A9B4FF001112046FFF7A6FE2268AD
:100D300038B11368DB0544BF4FF400732364012509
:100D4000AEE72369B3F5804F13D105F0FE051561B9
:100D500033460A9A33492046FFF7F5FD0546002839
:100D6000EDD1236803905A6903929B690393039B17
:100D700044E0EB1103F0060343F0F00313612A494A
:100D80000A9A33462046FFF7DEFD0028D7D12368B4
:100D9000EDB21D61DCE732460A992046FFF79FFE5F
:100DA00040B1236C042B01BF2268136843F4007325
:100DB0001360C4E7636A20681A4612F8011B0161D8
:100DC0006262628D013A92B26285228D4769511E3C
:100DD00089B27F0721850AD549B15978016102336B
:100DE0006362638D013B9BB2023A63852285324682
:100DF0000A992046FFF7ECFD0028D2D1238D002B65
:100E0000C9D121680A6842F400720A60202284F87D
:100E10003D2084F83C3084F83E3041E70200100069
:100E20000000FFFF02000100080001002DE9F0436F
:100E3000044689B098460E469146109FFFF702FC83
:100E400094F83D30202B054604D00226304609B0E8
:100E5000BDE8F0830090192301229B492046FFF74B
:100E60000CFE0028F1D194F83C30012BEDD0012389
:100E700084F83C3023681A68D2075EBF1A6842F0D3
:100E800001021A601A6822F400621A60222284F8B1
:100E90003D20102284F83E2000222264A4F82A80FB
:100EA000628D2285894AE262E26A1968C4F8249058
:100EB00041F48061082A196004D0012A02D012F599
:100EC000803F04D11A6842F480721A6002E0226BFB
:100ED000112AF7D03B46009500224FF00111204621
:100EE000FFF7CBFD236838B11B68D80544BF4FF42A
:100EF000007323640126A9E72269B2F5804F40D12F
:100F000046F00106F6B21E612B463A46704920466D
:100F1000FFF719FD06460028ECD1228D2368002A30
:100F200064D0012A75D11A6822F480621A6004968E
:100F30005A6904929A690492049A1A6842F40072F7
:100F40001A60DFF89481238D002B59D0032B00F217
:100F5000C580012B78D12A4639462046FFF75EFD31
:100F60000028C7D12268636A12691A70636A013364
:100F70006362238D013B2385638D013B9BB26385B7
:100F8000E1E74FEAE61808F0060848F0F0021A61B7
:100F900050492B463A462046FFF7D5FC0028A9D1F8
:100FA00023684B49F6B21E613A462B462046FFF7AE
:100FB000CAFC024600289DD1236807905969079111
:100FC000996907910799196841F480711960204661
:100FD00000953B464FF00111FFF74FFD226808B125
:100FE000136882E748F0F10313618DE703965A69AD
:100FF00003929A690392039A1A6842F400721A6083
:10100000202384F83D30002384F83E3084F83C30BF
:101010001CE7022A1A680DD122F480621A601A684D
:1010200042F400621A6005965A6905929B6905931D
:10103000059B86E742F480621A6006965A6906921A
:101040009B690693069B7CE7022B00953B464FF07D
:101050000002414620461AD1FFF70FFD00287FF419
:1010600049AF23681A6842F400721A60626A1B6909
:101070001370626A531C6362238D013B2385638D69
:10108000013B9BB2638523681B6953706EE7FFF7D2
:10109000F4FC024600287FF42DAF2368196821F480
:1010A00080611960616A1B690B70636A0095013386
:1010B0006362238D013B2385638D013B9BB2638576
:1010C00041463B462046C7E7020010000000FFFFF4
:1010D0000200010008000100040001002A46394610
:1010E0002046FFF79BFC00287FF404AF2268636A68
:1010F00012691A70626A531C6362238D013B238557
:10110000638D013B9BB263852368596949077FF56D
:101110001AAFB9E790F83D20D2B2202A10B516D107
:10112000242380F83D3003681C6824F001041C600F
:101130005C6A24F010045C625C6A2143596219689D
:1011400041F00101196080F83D20002010BD02200F
:1011500010BD30B590F83D40E4B2202C16D10268A5
:10116000242380F83D30156825F001051560556A87
:101170004FF6F0732B400B439BB25362136843F05E
:101180000103136080F83D40002030BD022030BDD7
:101190002DE9F341044608B901203FE00368DD076B
:1011A00010D4236898075AD423681A0700F19C804A
:1011B00023685B0700F1BA80A069002840F01B811A
:1011C00000202BE0A44B9A6802F00C02042A07D0FE
:1011D0009A6802F00C02082A0AD15B68590207D506
:1011E0009D4B1B689A03DCD56368002BD9D1D3E7EC
:1011F0006368994DB3F5803F13D12B6843F4803376
:101200002B60FFF71FFA944D06462B689B03C8D44A
:10121000FFF718FA801B6428F7D9032002B0BDE855
:10122000F081B3F5A02F04D12B6843F480232B6009
:10123000E3E72A6822F480322A602A6822F48022B6
:101240002A60002BDDD1FFF7FDF906462B689F03CE
:10125000A7D5FFF7F7F9801B6428F7D9DDE77E4BA8
:101260009A6812F00C0F07D09A6802F00C02082A54
:1012700011D15B685E020ED4774B1A68950702D5D0
:10128000E268012A88D11A68216922F0F80242EA4C
:10129000C1021A6088E7E268704BB2B101221A609D
:1012A000FFF7D0F96C4D06462B68980707D52B68D9
:1012B000226923F0F80343EAC2032B6074E7FFF7C7
:1012C000C1F9801B0228EFD9A7E71A60FFF7BAF926
:1012D000614D06462B6899077FF566AFFFF7B2F9B7
:1012E000801B0228F6D998E762695D4B7AB101222A
:1012F0001A60FFF7A7F9584D06466B6F9F073FF539
:1013000057AFFFF79FF9801B0228F6D985E71A60CF
:10131000FFF798F9504D06466B6F98077FF548AF79
:10132000FFF790F9801B0228F6D976E74A4B1A6C32
:1013300012F0805228D101921A6C42F080521A6445
:101340001B6C03F080530193019B0126454D2B68D4
:10135000D9051BD5A368404D012B27D12B6F43F036
:1013600001032B67FFF76EF93B4D074641F28838C2
:101370002B6F9B0739D5002E3FF41EAF364A136CF6
:1013800023F08053136417E70026DFE72B6843F44C
:1013900080732B60FFF756F907462B68DA05D9D41E
:1013A000FFF750F9C01B0228F7D936E7052B04D107
:1013B0002B6F43F004032B67D0E72A6F22F0010262
:1013C0002A672A6F22F004022A67002BCAD1FFF78E
:1013D00039F941F2883807462B6F9807CBD5FFF7CC
:1013E00031F9C01B4045F7D917E7FFF72BF9C01BB0
:1013F0004045BDD911E7184DAB6803F00C03082B2D
:1014000047D0194E00230228336035D1FFF71AF96F
:1014100007462B68990129D4226AE3691343626A5B
:1014200043EA8213E26A43EA0263A26A0A4C520860
:10143000013A43EA02436B6001233360FFF702F98C
:10144000054623689A013FF5BBAEFFF7FBF8401B4A
:101450000228F6D9E1E600BF00380240000047420A
:10146000800E47420070004060004742FFF7EAF8F4
:10147000C01B0228CDD9D0E6FFF7E4F804462B685C
:101480009B017FF59DAEFFF7DDF8001B0228F6D922
:10149000C3E601283FF4C2AEA868E36900F4800205
:1014A0009A427FF479AE226A00F03F0393427FF4C0
:1014B00073AE626A47F6C073034093427FF46CAE2A
:1014C000A26A00F4403393427FF466AEE36A00F010
:1014D0007060C01A18BF0120A0E600BF134908B50C
:1014E0008B6803F00C03042B03D0082B03D01048A7
:1014F00008BD104808BD4A684B68496813F480036A
:1015000014BF0C480A48C1F3881118BF002302F029
:101510003F02A1FB0001FEF7C3FE044B5B68C3F36F
:10152000014301335B00B0FBF3F008BD003802401B
:101530000024F40040787D012DE9F0410D46044679
:1015400010B90120BDE8F081444B1A6802F00F0287
:101550008A4229D321688F072ED4C80741D43F4B34
:101560001A6802F00F02954267D3226851076DD4C2
:10157000130707D53A4A2169936823F4604343EA85
:10158000C1039360FFF7AAFF354B364A9B68C3F34C
:101590000313D35CD840344B1860344B1868FFF702
:1015A00007F80020BDE8F081CAB21A701B6803F08A
:1015B0000F039942C5D1CDE7294B11F0040F1EBF8F
:1015C0009A6842F4E0529A600E0742BF9A6842F469
:1015D00060429A609A68A06822F0F00202439A6022
:1015E000BBE762681E4B012A1DD11B6813F4003F44
:1015F000A7D01B4EB36823F003031343B360FFF778
:1016000021F841F288380746B368626803F00C039A
:10161000B3EB820FA3D0FFF715F8C01B4045F3D9F9
:101620000320BDE8F081911E01291B6802D813F048
:10163000007FDDE713F0020FDAE7EAB21A701B68E9
:1016400003F00F039D427FF47CAF8EE70449E0680E
:101650008B6823F4E05303438B6089E7003C02402E
:1016600000380240982600081000002004000020E6
:10167000044B054A9B68C3F38223D35C034A10687A
:10168000D840704700380240A8260008100000200B
:10169000044B054A9B68C3F34233D35C034A10688A
:1016A000D840704700380240A826000810000020EB
:1016B00038B50368C1681A69044622F440520A43E7
:1016C0001A612569A268D968C0692A43656921F44D
:1016D00016412A4321F00C0102430A43DA605A6999
:1016E000A16922F440720A43B0F5004F5A61254ABD
:1016F00029D1934203D002F58062934220D1FFF7B3
:10170000C7FF6268256892184FF000034FF0190177
:101710005B41A0FB0101FEF7C3FD6421B0FBF1F4C6
:1017200001FB1403DB003233B3FBF1F303F00702D8
:101730005B0002EB041203F4F8731344AB6038BD92
:10174000FFF796FFDDE7934202D00F4A934216D18E
:10175000FFF79EFF6368256819219A00A0FB01012D
:101760009B0FFEF79DFD6422B0FBF2F102FB11031B
:101770001B013233B3FBF2F303EB0113DEE7FFF798
:1017800077FFE7E70010014000140140F8B5044678
:101790000E4617461D4621680B6836EA030301D141
:1017A0000020F8BD6B1CF7D095B92368DA6822F4E5
:1017B000D072DA605A6922F001025A61202384F85B
:1017C000393084F83A30002384F838300320F8BDEB
:1017D000FEF738FFC01B8542DDD2E6E710B50446B0
:1017E00040B390F8393003F0FF021BB980F838207D
:1017F00000F038FA2268242384F83930D36823F4BF
:101800000053D3602046FFF753FF23681A6922F480
:1018100090421A615A6922F02A025A61DA6842F447
:101820000052DA6000202023E06384F8393084F825
:101830003A3010BD012010BD2DE9F8431F4690F845
:101840003930202B04460D46904651D100294CD00A
:10185000002A4AD090F83830012B49D0012380F873
:1018600038304FF000092123C0F83C9080F839301F
:10187000FEF7E8FEA4F824800646A4F8268084F843
:101880003890E38C9BB25BB93B4632464021204600
:10189000FFF77CFFA0B9202384F83930BDE8F88336
:1018A000E38C013B9BB2E384A368B3F5805F3246CF
:1018B0003B464FF0800120460ED1FFF767FF10B185
:1018C0000320BDE8F8832B882268C3F30803536024
:1018D000236943B90235D4E7FFF758FF0028EFD159
:1018E00023682A785A600135CBE70120BDE8F883E8
:1018F0000220BDE8F883000010B594B0302200212A
:1019000008A800F083FA0021142203A800F07EFA50
:101910000024174B01941A6C42F080521A641B6C1D
:10192000144A03F080530193019B0294136823F43B
:10193000404343F48043136013680E9403F4404320
:101940000293029B0223089301230B9308A8102300
:101950000C93FFF71DFC0F23214603A80393049467
:10196000059406940794FFF7E7FD14B010BD00BF7F
:1019700000380240007000402DE9F0438FB0FEF7C0
:101980003BFEFFF7B9FF1422002109A800F03EFA40
:1019900000247B4B05941A6B7A487B4D7B4E42F0BA
:1019A00002021A631A6B02F002020592059A06946B
:1019B0001A6B42F004021A631A6B02F004020692D8
:1019C000069A07941A6B42F008021A631A6B02F027
:1019D00008020792079A08941A6B42F001021A63F0
:1019E0001B6B03F00103224608930821089B08277C
:1019F000FEF78AFF4FF0010809A962480B940C9486
:101A00000997CDF82880FEF793FE614A614BAC60E0
:101A100085E80C0028464FF480432B61EC606C6134
:101A2000AC61EC612C62FFF781F821462846FFF794
:101A300071FB21462846FFF78CFB5749B4604FF4F1
:101A4000165386E80A0030460C237361F460346153
:101A5000B461F461FFF7C2FE424639464948FEF7D9
:101A600053FF4E4B04941A8809949B784C4CADF864
:101A70000C208DF80E304FF0FF3800231A46CDF8B9
:101A80000080B8212846FFF7FDF80120FEF7E0FDB1
:101A9000444FCDF8008003AA0323B8212846FFF75E
:101AA000F1F80220FEF7D4FDCDF800803A46B821C7
:101AB00008232846FFF7BAF93B797A79DFF8F090E6
:101AC000DFF8F08042EA032212B2002A93B2BEBFCE
:101AD000C3F30E035B429BB207EE903AF8EE677ACF
:101AE000B2EE047AC7EE876ABA78FB7843EA02233B
:101AF0004FF47A7007EE903AF8EEE77AC9ED006A93
:101B0000C7EE876AC8ED006AFEF7A2FDD9ED007A3C
:101B1000FDEEE77A214617EE902A04A800F07EF940
:101B2000D8ED007AFDEEE77A214617EE902A09A853
:101B300000F074F91C4904A800F094F91B4909A8A5
:101B400000F090F904A8FEF753FB04A982B24FF00D
:101B5000FF333046FFF770FE41F28830FEF778FD24
:101B600009A8FEF745FB4FF0FF3382B209A93046C2
:101B7000FFF762FE41F28830FEF76AFD7BE700BFA7
:101B80000038024000000240AC00002000010020AC
:101B900000540040A0860100005000408C26000840
:101BA0008F26000894000020922600089526000841
:101BB0000C0000200800002082B00C4B0021009196
:101BC0005A6C42F480425A645A6C02F48042009289
:101BD000009A01911A6C42F080521A641B6C03F057
:101BE00080530193019B02B0704700BF0038024050
:101BF00030B5044689B01422002103A800F006F98C
:101C00002268154B9A4224D1144C154800250195A1
:101C1000236B43F002032363236B03F0020301935E
:101C2000019B4FF440730393122304930123059304
:101C30000323069303A904230793FEF779FD029576
:101C4000236C43F400132364236C03F40013029306
:101C5000029B09B030BD00BF005400400038024074
:101C600000040240F0B5044689B01422002103A804
:101C700000F0CCF822681F4B9A4239D103F5F433B7
:101C800000220092196C1C4841F480111964196CEF
:101C900001F48011009100990192196B41F0040147
:101CA0001963196B01F004010191019902921A6BF9
:101CB00042F008021A631B6B03F008030293029BB5
:101CC00002274FF4805301260325082403A9039318
:101CD0000497059606950794FEF72AFD042303A9A9
:101CE000064803930497059606950794FEF720FD92
:101CF00009B0F0BD0050004000080240000C024056
:101D00007047FEE7FEE7FEE7FEE770477047704763
:101D1000FEF78CBC08B50A4B1968024609B9094997
:101D200019601868694602448A4206D900F044F8EE
:101D30000C2303604FF0FF3008BD1A6008BD00BFE0
:101D40009C00002044010020054BD3F8882042F479
:101D50007002C3F888204FF000629A60704700BF9D
:101D600000ED00E0DFF834D0002103E00C4B5B58BD
:101D7000435004310B480C4B42189A42F6D30B4A9D
:101D800002E0002342F8043B094B9A42F9D3FFF7E3
:101D9000DBFF00F017F8FFF7EFFD704700000320AE
:101DA000F4260008000000207800002078000020C1
:101DB00044010020FEE70000014B1868704700BF97
:101DC0001400002070B50D4E0D4CA41BA41000256E
:101DD000A54209D10B4E0C4C00F04CFCA41BA410E6
:101DE0000025A54205D170BD56F82530984701352C
:101DF000EEE756F8253098470135F2E7EC26000863
:101E0000EC260008EC260008F026000802440346F1
:101E1000934200D1704703F8011BF9E70EB400B5F7
:101E20009CB04FF402711DABADF8141002900690F7
:101E30006FF000410A48049107914FF6FF7153F883
:101E4000042BADF816100068019302A900F074F895
:101E5000029B00221A701CB05DF804EB03B07047BF
:101E60001400002010B50246134601321C78002CE5
:101E7000FAD1013B11F8012B03F8012F002AF9D107
:101E800010BD2DE9F0478E689E4282460C46914671
:101E9000984635D88A8912F4906F31D0256809693F
:101EA0006F1A6569022305EB450595FBF3F508F10B
:101EB00001033B449D4238BF1D46530531D5294699
:101EC00000F038FB064650B90C23CAF80030A3894D
:101ED00043F04003A3814FF0FF30BDE8F0873A465E
:101EE000216900F0B3FAA38923F4906343F08003DF
:101EF000A381266165613E44ED1B2660A5604646D0
:101F0000464528BF464632464946206800F0A9FAB1
:101F1000A3689B1BA36023681E4426600020BDE8C5
:101F2000F0872A4600F064FB06460028E1D12169CB
:101F3000504600F0B1FAC7E72DE9F04F9DB080465A
:101F400003938B891C060D4616460FD50B696BB99A
:101F5000402100F0EFFA2860286128B90C23C8F866
:101F600000304FF0FF30C5E040236B610023099340
:101F700020238DF8293030238DF82A304FF0010BC3
:101F800037463C4614F8013B002B3CD1B7EB060A20
:101F90000BD05346324629464046FFF772FF0130C8
:101FA00000F0A380099B534409933B78002B00F079
:101FB0009C8000234FF0FF32049307930592069311
:101FC0008DF853301A93052221785048FEF718F9FE
:101FD000671C049BD8B9D90644BF20228DF8532032
:101FE0001A0744BF2B228DF8532022782A2A16D0B4
:101FF000079A00210A20274601343B78303B092B01
:1020000051D9C9B111E0252BC0D02746B9E73F4AC5
:10201000801A0BFA00F0184304903C46D3E7039A69
:10202000111D12680391002A01DB079204E052425D
:1020300043F00203079204933B782E2B0ED17B785A
:102040002A2B07F1010132D1039B1A1D1B68039251
:10205000002BB8BF4FF0FF33023705932C4C397873
:1020600003222046FEF7CCF838B14023001B03FAC8
:1020700000F0049B034304930137397825488DF819
:10208000281006227E1CFEF7BBF8002835D0224B14
:10209000FBB9039B073323F0070308330393099B22
:1020A0004B4409936CE700FB02320121A3E70023B4
:1020B000059318460A240F4601313A78303A092A26
:1020C00003D9002BCAD00590C8E704FB00200123E8
:1020D000F1E703AB00932A46104B04A94046AFF347
:1020E0000080B0F1FF3F8146D9D1AB895B063FF557
:1020F00038AF09981DB0BDE8F08F03AB00932A46B6
:10210000064B04A9404600F081F8EAE7B026000833
:10211000B6260008BA26000800000000831E00084A
:102120002DE9F04791461F468A680B69DDF820804B
:102130009342B8BF1346C9F8003091F843200646D1
:102140000C4612B10133C9F800302368990642BF2A
:10215000D9F800300233C9F80030256815F00605BB
:1021600007D104F1190AE368D9F800209B1A9D42AF
:1021700029DB94F843302268003318BF012392060C
:102180002ED404F1430239463046C047013021D0F5
:102190002368E568D9F8002003F00603042B08BF84
:1021A000AD1AA36822690CBF25EAE57500259342A4
:1021B000C4BF9B1AED184FF000091A344D451BD1CE
:1021C0000020BDE8F0870123524639463046C0471B
:1021D000013003D14FF0FF30BDE8F0870135C2E791
:1021E000E1185A1C302081F84300224494F845102D
:1021F00082F843100233C4E70123224639463046B1
:10220000C0470130E6D009F10109D7E72DE9F043D5
:1022100017460A7E85B06E2A984606460C460C9BE9
:1022200001F1430E00F0BC801AD8632A2ED00AD8E0
:10223000002A00F0C880582A00F08A8004F1420584
:1022400084F842202AE0642A01D0692AF6D1216864
:102250001A6811F0800F23D0111D1960136827E050
:10226000732A00F0B48008D86F2A2AD0702AE5D1EA
:102270000A6842F020020A6003E0752A21D0782A19
:10228000DCD1782284F845206E4964E01A6801F1B7
:102290004205111D1960136884F842300123A3E040
:1022A00011F0400F02F104011960D7D0B2F90030EB
:1022B000002B03DA2D225B4284F8432062490A2274
:1022C00017E02068196810F0800F03D0081D18600F
:1022D0000B6806E010F0400F01F104001860F7D021
:1022E0000B8859496F2A14BF0A220822002084F85B
:1022F00043006568A560002DC0F29C80206820F036
:1023000004002060002B3FD1002D40F095807546E1
:10231000082A0BD12368DA0708D5236962689A4234
:10232000DEBF302305F8013C05F1FF35AEEB0503B8
:102330002361CDF800803B4603AA21463046FFF7D3
:10234000EFFE013055D14FF0FF3005B0BDE8F0830E
:1023500081F845203C492268186812F0800F00F18E
:1023600004051D6001D0036802E05506FBD5038813
:10237000D00744BF42F0200222601BB9226822F03D
:10238000200222601022B1E77546B3FBF2F002FB97
:102390001033CB5C05F8013D03460028F5D1B7E7C3
:1023A00008681A68496910F0800F04D0101D186081
:1023B0001368196007E010F0400F02F10400186084
:1023C0001368F6D01980002323617546B1E71A68B7
:1023D000111D19601568626800212846FDF710FF7D
:1023E00008B1401B606063682361002384F84330B8
:1023F0009FE723692A4639463046C0470130A2D0BC
:1024000023689B0707D5002504F11909E368039A9F
:102410009B1A9D4205DBE068039B9842B8BF1846B3
:1024200093E701234A4639463046C04701308AD0F7
:102430000135EBE7002BA7D10B7884F8423004F18B
:10244000420565E7D2260008C126000810B5431EE4
:102450000A44914200D110BD11F8014B03F8014F1D
:10246000F7E7884210B501EB020303D8421E9942F8
:102470000CD110BD9842F9D28118D21AD34200D1A2
:1024800010BD13F8014D01F8014DF7E711F8014BAC
:1024900002F8014FEBE7000038B50546002945D0AA
:1024A00051F8043C0C1F002BB8BFE41800F0D6F81C
:1024B0001F4A1368104633B9636014602846BDE8AC
:1024C000384000F0CCB8A3420CD92168621893427E
:1024D00004BF1A685B68636004BF5218226004601E
:1024E000ECE713465A680AB1A242FAD9196858189B
:1024F000A0420BD120680144581882421960DDD1F6
:10250000106852685A6001441960D7E702D90C2359
:102510002B60D3E7206821188A4204BF11685268F3
:10252000626004BF091821605C60C7E738BD00BF66
:10253000A000002070B5CD1C25F0030508350C2D3A
:1025400038BF0C25002D064601DBA94203D90C2318
:102550003360002070BD00F081F8234A14682146E2
:1025600091B9224C23681BB9304600F067F820600F
:102570002946304600F062F8431C26D10C23336014
:10258000304600F06CF8E4E70B685B1B1AD40B2BA9
:102590000FD90B60CD50CC18304600F060F804F134
:1025A0000B00231D20F00700C31A1BD05A42E25033
:1025B00070BD8C420DBF63684B686360136018BFC9
:1025C0000C46E9E70C464968CAE7C41C24F003043A
:1025D000A04205D0211A304600F030F80130CDD0AD
:1025E0002560D9E770BD00BFA0000020A400002036
:1025F000F8B5074614460E4621B91146BDE8F84025
:10260000FFF798BF22B9FFF747FF25462846F8BDD8
:1026100000F026F884420FD921463846FFF78AFF9A
:1026200005460028F2D031462246FFF70FFF31461B
:102630003846FFF731FFE9E73546E7E738B5064C9E
:102640000023054608462360FFF764FB431C02D1C4
:10265000236803B12B6038BD4001002070477047EC
:1026600051F8040C0028A0F10400BCBF0B58C0189E
:1026700070470000F8B500BFF8BC08BC9E46704724
:0C268000F8B500BFF8BC08BC9E467047CF
:10268C00030004256400740A00680A0000000000BE
:10269C000000000001020304060708090000000006
:1026AC0001020304232D302B2000686C4C0065665E
:1026BC006745464700303132333435363738394187
:1026CC00424344454600303132333435363738399D
:0826DC006162636465660000A1
:0826E400ECDBFF7F01000000A8
:0426EC00D50100080C
:0426F000B10100082C
:1026F4000100000010000000000020410000204103
:102704000024F40018000020000000000000000075
:1027140000000000000000000000000000000000B5
:1027240000000000000000000000000000000000A5
:102734000000000000000000000000000000000095
:102744000000000000000000000000000000000085
:102754000000000000000000000000000000000075
:0827640000000000000000006D
:0400000508001D656D
:00000001FF
